:020000040800F2
:1000000000C007204509000891090008910900086F
:1000100091090008910900089109000800000000FA
:10002000000000000000000000000000910900082E
:1000300091090008000000009109000891090008DA
:100040009109000891090008910900089109000828
:100050009109000891090008910900089109000818
:100060009109000891090008910900089109000808
:1000700091090008910900089109000891090008F8
:1003C000114A3021114BD1615360936913F0120F20
:1003D000FBD0936913F0100313D10B4993628B691F
:1003E00013F0120FFBD08B69DA0607D4064A886235
:1003F00093699B06FCD52023D36170471023CB6102
:1004000070471023D36170470054004078200202E7
:1004100070B5A0B000261C4C80221C4D00216846FF
:1004200000F0B8FA66F04F00C0B2FFF7C9FF002035
:10043000FFF7C6FF1020FFF7C3FF3023E3616560BD
:10044000A36913F0120FFBD0A369DB0619D4402374
:100450006A4620A9A362A36913F0120FFBD0A36917
:10046000D8060ED412F8013B9142A362F3D1A369DE
:100470009B06FCD52023E3610136082ED2D120B0A3
:1004800070BD1023E361F7E700540040782081023B
:100490002DE9F843044641F0B0001546FFF790FF00
:1004A00004F00F00FFF78CFF200940F01000FFF769
:1004B00087FF2A78002A54D02946DFF8C4C02D4B84
:1004C00030202D4F40254FF0200E10242B4EA2F14E
:1004D0006108B8F1190F01D8203AD2B23A3AD2B233
:1004E0001D2A44D80CEB8202D2F80890D8615F60D4
:1004F0009A6912F0120FFBD09A69D20635D409F12D
:10050000FF3809F104099D629A6912F0120FFBD0BD
:100510009A69D20629D418F8012FC8459A62F3D1F6
:100520009A699206FCD5C3F81CE0D8615E609A69AE
:1005300012F0120FFBD09A69D20614D49D629A6908
:1005400012F0120FFBD09A6912F010020BD19A62CE
:100550009A699206FCD5C3F81CE011F8012F002A15
:10056000B5D1BDE8F883DC61F7E7DC61DDE7E146A2
:10057000BCE700BF00540040782006027820020249
:10058000BC0A000810B5254AA4B00024303020234E
:100590000092214680228DF8050004A88DF80430D1
:1005A0008DF8064000F0F6F9B020FFF709FF20466D
:1005B000FFF706FF1020FFF703FF19483022194B01
:1005C000C2614360836913F0120FFBD08369DC06BC
:1005D0001ED4402304A90DF1900C114A8362936943
:1005E00013F0120FFBD09369D80614D411F8013B15
:1005F0008C459362F3D10A4A93699B06FCD520236C
:10060000D36100216A460846FFF742FF24B010BDBF
:100610001023C361F5E71023D361F2E75241573A43
:100620000054004078208102704700BF2DE9F04758
:1006300084B04FF4002400F043F9954A95484FF4F4
:100640008035116B944B41F02501A3F58063116354
:10065000016821F0C0010160016841F040010160C2
:10066000D3F8001421F00301C3F80014D3F80014E8
:1006700041F00101C3F80014D3F8001421F0C001C7
:10068000C3F80014D3F8001441F04001C3F800147B
:1006900082498461C3F81854C3F818440868804C30
:1006A00020F040600860C86820F04060C860C868FA
:1006B00040F08060C860A1F5E031106B40F00200AE
:1006C0001063106C40F40010106401201A6822F4CA
:1006D00070221A601A6842F420221A605A6A22F0C4
:1006E000FF025A625A6A42F044025A625A6842F45D
:1006F00040725A609A6842F470229A60DA6822F472
:100700007022DA60DA6842F4A022DA6000220B6814
:1007100023F001030B600C6108600392039B614AA4
:10072000934205D8039B01330393039B9342F9D96A
:10073000AE20FFF745FE2020FFF742FE0220FFF724
:100740003FFEA120FFF73CFEC820FFF739FE8120C5
:10075000FFF736FE7F20FFF733FEA620FFF730FEBF
:10076000A820FFF72DFE3F20FFF72AFED320FFF73A
:1007700027FE0020FFF724FED520FFF721FE802072
:10078000FFF71EFED920FFF71BFE2220FFF718FE01
:10079000DA20FFF715FE1220FFF712FEDB20FFF72D
:1007A0000FFE2020FFF70CFE8D20FFF709FE14201E
:1007B000FFF706FEAF20FFF703FEFFF729FE3A4AD8
:1007C00002212820FFF764FE0023384A0193019B91
:1007D000934205D8019B01330193019B9342F9D9C0
:1007E0004FF0FF3A2D4F2B4E2B4D3B6908244FF015
:1007F0000009C3F340384046FFF7C4FE3B699B0441
:100800002B4B58BF09F1010900BF1A46013B002AD2
:10081000FAD1013CF2D1B9F1050FD4BF0021012179
:100820008A4513D0FFF7F4FD4046FFF7ABFEB9F160
:10083000050F19DD08234FF4803402211D4AB361EE
:100840001320AC61AB61FFF723FE01210023184A9E
:100850000293029B934205D8029B01330293029BB1
:100860009342F9D98A46C0E74FF400234FF0010CB8
:10087000114A0221B3612520C5F818C0AB61FFF70A
:1008800007FE04210D4A2820FFF702FE2146DDE77E
:1008900000380240000002400008024000140240FC
:1008A0005D3E3020FF520700880A0008FF691800EB
:1008B0007F380100940A0008A40A0008B00A000862
:1008C000034AD2F8883043F47003C2F88830704786
:1008D00000ED00E0164A936803F00C03042B25D0CA
:1008E000082B0AD0134B124A134892681349C2F3DB
:1008F0000312825CD3400B607047536851685B02FF
:10090000536801F03F0148BF0D48C3F3881358BF37
:100910000848B0FBF1F202FB03F3054A5268C2F348
:10092000014201325200B3FBF2F3DCE7044BDAE799
:10093000003802400024F400AC0B00080000022044
:1009400040787D010D480E490E4A914200D304E0E3
:1009500050F8043B41F8043BF7E70B480B490022F1
:10096000884200D302E040F8042BF9E7FFF7A8FF24
:1009700000F062F8FFF75AFEFEE70000C40B000823
:1009800000000220040002200400022004000220D3
:10099000FEE70000830730B547D0541E002A3ED042
:1009A000CAB2034601E0013C39D303F8012B9D078D
:1009B000F9D1032C2CD9CDB205EB05250F2C05EB75
:1009C000054535D9A4F1100222F00F0C03F1100EE9
:1009D000E6444FEA121C1A46C2E90055C2E9025524
:1009E00010327245F8D10CF1010214F00C0F03EB38
:1009F000021204F00F0C13D0ACF1040323F0030334
:100A00000433134442F8045B9342FBD10CF003041B
:100A10002CB1C9B21C4403F8011BA342FBD130BD69
:100A200064461346002CF4D1F9E703461446C0E7A8
:100A30001A46A446E0E700BF70B50F4B0F4DAB421E
:100A4000A3EB050607D0B610002455F8043B01348B
:100A50009847A642F9D8FFF7E7FD094D094B5E1B01
:100A6000AB424FEAA60606D0002455F8043B0134F9
:100A70009847A642F9D870BDC40B0008C40B000803
:080A8000C40B0008C40B0008C0
:100A8800504F574552204F4E000000004F424A45F4
:100A98004354204445544543544544004E4F204F49
:100AA800424A454354000000444554454354454494
:100AB8000000000000000000000000003C0B0008DF
:100AC800BC0A0008BC0A0008BC0A0008BC0A0008E6
:100AD800BC0A0008BC0A0008A40B00089C0B00080C
:100AE800940B00088C0B0008840B0008BC0A000853
:100AF800BC0A0008BC0A00087C0B0008740B00083C
:100B0800BC0A0008BC0A0008BC0A00086C0B0008F4
:100B1800640B00084C0B0008BC0A00085C0B0008BA
:100B2800BC0A0008540B0008BC0A0008BC0A0008EC
:100B3800440B000800002400000000007F2018205B
:100B48007F0000007F0909090600000001017F01FC
:100B5800010000007F091929460000003E4141417B
:100B68003E0000007F0408107F0000002040413F45
:100B78000100000000417F41000000007F49494911
:100B8800410000007F4141221C0000003E414141DC
:100B9800220000007F494949360000007E111111EA
:100BA8007E000000000000000000000001020304B5
:0C0BB80006070809000000000102030409
:040BC4000024F40015
:0400000508000945A1
:00000001FF
